{
	"contracts/StateTrans.sol": {
		"StateTrans": {
			"abi": [
				{
					"constant": true,
					"inputs": [],
					"name": "state",
					"outputs": [
						{
							"name": "",
							"type": "uint8"
						}
					],
					"payable": false,
					"stateMutability": "view",
					"type": "function"
				},
				{
					"constant": false,
					"inputs": [],
					"name": "advangeStage",
					"outputs": [],
					"payable": false,
					"stateMutability": "nonpayable",
					"type": "function"
				},
				{
					"constant": true,
					"inputs": [],
					"name": "timeNow",
					"outputs": [
						{
							"name": "",
							"type": "uint256"
						}
					],
					"payable": false,
					"stateMutability": "view",
					"type": "function"
				},
				{
					"inputs": [],
					"payable": false,
					"stateMutability": "nonpayable",
					"type": "constructor"
				}
			],
			"devdoc": {
				"methods": {}
			},
			"evm": {
				"assembly": "    /* \"contracts/StateTrans.sol\":27:650  contract StateTrans {\r... */\n  mstore(0x40, 0x80)\n    /* \"contracts/StateTrans.sol\":168:260  function StateTrans() public {\r... */\n  callvalue\n    /* \"--CODEGEN--\":8:17   */\n  dup1\n    /* \"--CODEGEN--\":5:7   */\n  iszero\n  tag_1\n  jumpi\n    /* \"--CODEGEN--\":30:31   */\n  0x0\n    /* \"--CODEGEN--\":27:28   */\n  dup1\n    /* \"--CODEGEN--\":20:32   */\n  revert\n    /* \"--CODEGEN--\":5:7   */\ntag_1:\n    /* \"contracts/StateTrans.sol\":168:260  function StateTrans() public {\r... */\n  pop\n    /* \"contracts/StateTrans.sol\":216:226  State.Init */\n  0x0\n    /* \"contracts/StateTrans.sol\":208:213  state */\n  dup1\n  0x0\n    /* \"contracts/StateTrans.sol\":208:226  state = State.Init */\n  0x100\n  exp\n  dup2\n  sload\n  dup2\n  0xff\n  mul\n  not\n  and\n  swap1\n  dup4\n  0x3\n  dup2\n  gt\n  iszero\n  tag_4\n  jumpi\n  invalid\ntag_4:\n  mul\n  or\n  swap1\n  sstore\n  pop\n    /* \"contracts/StateTrans.sol\":249:252  now */\n  timestamp\n    /* \"contracts/StateTrans.sol\":237:246  startTime */\n  0x1\n    /* \"contracts/StateTrans.sol\":237:252  startTime = now */\n  dup2\n  swap1\n  sstore\n  pop\n    /* \"contracts/StateTrans.sol\":27:650  contract StateTrans {\r... */\n  dataSize(sub_0)\n  dup1\n  dataOffset(sub_0)\n  0x0\n  codecopy\n  0x0\n  return\nstop\n\nsub_0: assembly {\n        /* \"contracts/StateTrans.sol\":27:650  contract StateTrans {\r... */\n      mstore(0x40, 0x80)\n      jumpi(tag_1, lt(calldatasize, 0x4))\n      calldataload(0x0)\n      0x100000000000000000000000000000000000000000000000000000000\n      swap1\n      div\n      0xffffffff\n      and\n      dup1\n      0xc19d93fb\n      eq\n      tag_2\n      jumpi\n      dup1\n      0xcffb510a\n      eq\n      tag_3\n      jumpi\n      dup1\n      0xd95660be\n      eq\n      tag_4\n      jumpi\n    tag_1:\n      0x0\n      dup1\n      revert\n        /* \"contracts/StateTrans.sol\":94:112  State public state */\n    tag_2:\n      callvalue\n        /* \"--CODEGEN--\":8:17   */\n      dup1\n        /* \"--CODEGEN--\":5:7   */\n      iszero\n      tag_5\n      jumpi\n        /* \"--CODEGEN--\":30:31   */\n      0x0\n        /* \"--CODEGEN--\":27:28   */\n      dup1\n        /* \"--CODEGEN--\":20:32   */\n      revert\n        /* \"--CODEGEN--\":5:7   */\n    tag_5:\n        /* \"contracts/StateTrans.sol\":94:112  State public state */\n      pop\n      tag_6\n      jump(tag_7)\n    tag_6:\n      mload(0x40)\n      dup1\n      dup3\n      0x3\n      dup2\n      gt\n      iszero\n      tag_8\n      jumpi\n      invalid\n    tag_8:\n      0xff\n      and\n      dup2\n      mstore\n      0x20\n      add\n      swap2\n      pop\n      pop\n      mload(0x40)\n      dup1\n      swap2\n      sub\n      swap1\n      return\n        /* \"contracts/StateTrans.sol\":268:645  function advangeStage() public {\r... */\n    tag_3:\n      callvalue\n        /* \"--CODEGEN--\":8:17   */\n      dup1\n        /* \"--CODEGEN--\":5:7   */\n      iszero\n      tag_9\n      jumpi\n        /* \"--CODEGEN--\":30:31   */\n      0x0\n        /* \"--CODEGEN--\":27:28   */\n      dup1\n        /* \"--CODEGEN--\":20:32   */\n      revert\n        /* \"--CODEGEN--\":5:7   */\n    tag_9:\n        /* \"contracts/StateTrans.sol\":268:645  function advangeStage() public {\r... */\n      pop\n      tag_10\n      jump(tag_11)\n    tag_10:\n      stop\n        /* \"contracts/StateTrans.sol\":140:159  uint public timeNow */\n    tag_4:\n      callvalue\n        /* \"--CODEGEN--\":8:17   */\n      dup1\n        /* \"--CODEGEN--\":5:7   */\n      iszero\n      tag_12\n      jumpi\n        /* \"--CODEGEN--\":30:31   */\n      0x0\n        /* \"--CODEGEN--\":27:28   */\n      dup1\n        /* \"--CODEGEN--\":20:32   */\n      revert\n        /* \"--CODEGEN--\":5:7   */\n    tag_12:\n        /* \"contracts/StateTrans.sol\":140:159  uint public timeNow */\n      pop\n      tag_13\n      jump(tag_14)\n    tag_13:\n      mload(0x40)\n      dup1\n      dup3\n      dup2\n      mstore\n      0x20\n      add\n      swap2\n      pop\n      pop\n      mload(0x40)\n      dup1\n      swap2\n      sub\n      swap1\n      return\n        /* \"contracts/StateTrans.sol\":94:112  State public state */\n    tag_7:\n      0x0\n      dup1\n      swap1\n      sload\n      swap1\n      0x100\n      exp\n      swap1\n      div\n      0xff\n      and\n      dup2\n      jump\t// out\n        /* \"contracts/StateTrans.sol\":268:645  function advangeStage() public {\r... */\n    tag_11:\n        /* \"contracts/StateTrans.sol\":320:323  now */\n      timestamp\n        /* \"contracts/StateTrans.sol\":310:317  timeNow */\n      0x2\n        /* \"contracts/StateTrans.sol\":310:323  timeNow = now */\n      dup2\n      swap1\n      sstore\n      pop\n        /* \"contracts/StateTrans.sol\":360:370  10 seconds */\n      0xa\n        /* \"contracts/StateTrans.sol\":348:357  startTime */\n      sload(0x1)\n        /* \"contracts/StateTrans.sol\":348:370  startTime + 10 seconds */\n      add\n        /* \"contracts/StateTrans.sol\":338:345  timeNow */\n      sload(0x2)\n        /* \"contracts/StateTrans.sol\":338:370  timeNow > startTime + 10 seconds */\n      gt\n        /* \"contracts/StateTrans.sol\":334:620  if (timeNow > startTime + 10 seconds) {\r... */\n      iszero\n      tag_16\n      jumpi\n        /* \"contracts/StateTrans.sol\":399:406  timeNow */\n      sload(0x2)\n        /* \"contracts/StateTrans.sol\":387:396  startTime */\n      0x1\n        /* \"contracts/StateTrans.sol\":387:406  startTime = timeNow */\n      dup2\n      swap1\n      sstore\n      pop\n        /* \"contracts/StateTrans.sol\":434:444  State.Init */\n      0x0\n        /* \"contracts/StateTrans.sol\":425:444  state == State.Init */\n      0x3\n      dup2\n      gt\n      iszero\n      tag_17\n      jumpi\n      invalid\n    tag_17:\n        /* \"contracts/StateTrans.sol\":425:430  state */\n      0x0\n      dup1\n      swap1\n      sload\n      swap1\n      0x100\n      exp\n      swap1\n      div\n      0xff\n      and\n        /* \"contracts/StateTrans.sol\":425:444  state == State.Init */\n      0x3\n      dup2\n      gt\n      iszero\n      tag_18\n      jumpi\n      invalid\n    tag_18:\n      eq\n        /* \"contracts/StateTrans.sol\":421:474  if (state == State.Init) {state = State.Reg; return;} */\n      iszero\n      tag_19\n      jumpi\n        /* \"contracts/StateTrans.sol\":455:464  State.Reg */\n      0x1\n        /* \"contracts/StateTrans.sol\":447:452  state */\n      0x0\n      dup1\n        /* \"contracts/StateTrans.sol\":447:464  state = State.Reg */\n      0x100\n      exp\n      dup2\n      sload\n      dup2\n      0xff\n      mul\n      not\n      and\n      swap1\n      dup4\n      0x3\n      dup2\n      gt\n      iszero\n      tag_20\n      jumpi\n      invalid\n    tag_20:\n      mul\n      or\n      swap1\n      sstore\n      pop\n        /* \"contracts/StateTrans.sol\":466:473  return; */\n      jump(tag_15)\n        /* \"contracts/StateTrans.sol\":421:474  if (state == State.Init) {state = State.Reg; return;} */\n    tag_19:\n        /* \"contracts/StateTrans.sol\":501:510  State.Reg */\n      0x1\n        /* \"contracts/StateTrans.sol\":492:510  state == State.Reg */\n      0x3\n      dup2\n      gt\n      iszero\n      tag_21\n      jumpi\n      invalid\n    tag_21:\n        /* \"contracts/StateTrans.sol\":492:497  state */\n      0x0\n      dup1\n      swap1\n      sload\n      swap1\n      0x100\n      exp\n      swap1\n      div\n      0xff\n      and\n        /* \"contracts/StateTrans.sol\":492:510  state == State.Reg */\n      0x3\n      dup2\n      gt\n      iszero\n      tag_22\n      jumpi\n      invalid\n    tag_22:\n      eq\n        /* \"contracts/StateTrans.sol\":488:541  if (state == State.Reg) {state = State.Vote; return;} */\n      iszero\n      tag_23\n      jumpi\n        /* \"contracts/StateTrans.sol\":521:531  State.Vote */\n      0x2\n        /* \"contracts/StateTrans.sol\":513:518  state */\n      0x0\n      dup1\n        /* \"contracts/StateTrans.sol\":513:531  state = State.Vote */\n      0x100\n      exp\n      dup2\n      sload\n      dup2\n      0xff\n      mul\n      not\n      and\n      swap1\n      dup4\n      0x3\n      dup2\n      gt\n      iszero\n      tag_24\n      jumpi\n      invalid\n    tag_24:\n      mul\n      or\n      swap1\n      sstore\n      pop\n        /* \"contracts/StateTrans.sol\":533:540  return; */\n      jump(tag_15)\n        /* \"contracts/StateTrans.sol\":488:541  if (state == State.Reg) {state = State.Vote; return;} */\n    tag_23:\n        /* \"contracts/StateTrans.sol\":568:578  State.Vote */\n      0x2\n        /* \"contracts/StateTrans.sol\":559:578  state == State.Vote */\n      0x3\n      dup2\n      gt\n      iszero\n      tag_25\n      jumpi\n      invalid\n    tag_25:\n        /* \"contracts/StateTrans.sol\":559:564  state */\n      0x0\n      dup1\n      swap1\n      sload\n      swap1\n      0x100\n      exp\n      swap1\n      div\n      0xff\n      and\n        /* \"contracts/StateTrans.sol\":559:578  state == State.Vote */\n      0x3\n      dup2\n      gt\n      iszero\n      tag_26\n      jumpi\n      invalid\n    tag_26:\n      eq\n        /* \"contracts/StateTrans.sol\":555:609  if (state == State.Vote) {state = State.Done; return;} */\n      iszero\n      tag_27\n      jumpi\n        /* \"contracts/StateTrans.sol\":589:599  State.Done */\n      0x3\n        /* \"contracts/StateTrans.sol\":581:586  state */\n      0x0\n      dup1\n        /* \"contracts/StateTrans.sol\":581:599  state = State.Done */\n      0x100\n      exp\n      dup2\n      sload\n      dup2\n      0xff\n      mul\n      not\n      and\n      swap1\n      dup4\n      0x3\n      dup2\n      gt\n      iszero\n      tag_28\n      jumpi\n      invalid\n    tag_28:\n      mul\n      or\n      swap1\n      sstore\n      pop\n        /* \"contracts/StateTrans.sol\":601:608  return; */\n      jump(tag_15)\n        /* \"contracts/StateTrans.sol\":555:609  if (state == State.Vote) {state = State.Done; return;} */\n    tag_27:\n        /* \"contracts/StateTrans.sol\":334:620  if (timeNow > startTime + 10 seconds) {\r... */\n    tag_16:\n        /* \"contracts/StateTrans.sol\":268:645  function advangeStage() public {\r... */\n    tag_15:\n      jump\t// out\n        /* \"contracts/StateTrans.sol\":140:159  uint public timeNow */\n    tag_14:\n      sload(0x2)\n      dup2\n      jump\t// out\n\n    auxdata: 0xa165627a7a72305820ceec88f5e923a7a193121bc991e571a0394ec73b16d2763bd164f4ef1d68341f0029\n}\n",
				"bytecode": {
					"linkReferences": {},
					"object": "608060405234801561001057600080fd5b5060008060006101000a81548160ff0219169083600381111561002f57fe5b02179055504260018190555061023d8061004a6000396000f300608060405260043610610057576000357c0100000000000000000000000000000000000000000000000000000000900463ffffffff168063c19d93fb1461005c578063cffb510a14610095578063d95660be146100ac575b600080fd5b34801561006857600080fd5b506100716100d7565b6040518082600381111561008157fe5b60ff16815260200191505060405180910390f35b3480156100a157600080fd5b506100aa6100e9565b005b3480156100b857600080fd5b506100c161020b565b6040518082815260200191505060405180910390f35b6000809054906101000a900460ff1681565b42600281905550600a600154016002541115610208576002546001819055506000600381111561011557fe5b6000809054906101000a900460ff16600381111561012f57fe5b141561015d5760016000806101000a81548160ff0219169083600381111561015357fe5b0217905550610209565b6001600381111561016a57fe5b6000809054906101000a900460ff16600381111561018457fe5b14156101b25760026000806101000a81548160ff021916908360038111156101a857fe5b0217905550610209565b600260038111156101bf57fe5b6000809054906101000a900460ff1660038111156101d957fe5b14156102075760036000806101000a81548160ff021916908360038111156101fd57fe5b0217905550610209565b5b5b565b600254815600a165627a7a72305820ceec88f5e923a7a193121bc991e571a0394ec73b16d2763bd164f4ef1d68341f0029",
					"opcodes": "PUSH1 0x80 PUSH1 0x40 MSTORE CALLVALUE DUP1 ISZERO PUSH2 0x10 JUMPI PUSH1 0x0 DUP1 REVERT JUMPDEST POP PUSH1 0x0 DUP1 PUSH1 0x0 PUSH2 0x100 EXP DUP2 SLOAD DUP2 PUSH1 0xFF MUL NOT AND SWAP1 DUP4 PUSH1 0x3 DUP2 GT ISZERO PUSH2 0x2F JUMPI INVALID JUMPDEST MUL OR SWAP1 SSTORE POP TIMESTAMP PUSH1 0x1 DUP2 SWAP1 SSTORE POP PUSH2 0x23D DUP1 PUSH2 0x4A PUSH1 0x0 CODECOPY PUSH1 0x0 RETURN STOP PUSH1 0x80 PUSH1 0x40 MSTORE PUSH1 0x4 CALLDATASIZE LT PUSH2 0x57 JUMPI PUSH1 0x0 CALLDATALOAD PUSH29 0x100000000000000000000000000000000000000000000000000000000 SWAP1 DIV PUSH4 0xFFFFFFFF AND DUP1 PUSH4 0xC19D93FB EQ PUSH2 0x5C JUMPI DUP1 PUSH4 0xCFFB510A EQ PUSH2 0x95 JUMPI DUP1 PUSH4 0xD95660BE EQ PUSH2 0xAC JUMPI JUMPDEST PUSH1 0x0 DUP1 REVERT JUMPDEST CALLVALUE DUP1 ISZERO PUSH2 0x68 JUMPI PUSH1 0x0 DUP1 REVERT JUMPDEST POP PUSH2 0x71 PUSH2 0xD7 JUMP JUMPDEST PUSH1 0x40 MLOAD DUP1 DUP3 PUSH1 0x3 DUP2 GT ISZERO PUSH2 0x81 JUMPI INVALID JUMPDEST PUSH1 0xFF AND DUP2 MSTORE PUSH1 0x20 ADD SWAP2 POP POP PUSH1 0x40 MLOAD DUP1 SWAP2 SUB SWAP1 RETURN JUMPDEST CALLVALUE DUP1 ISZERO PUSH2 0xA1 JUMPI PUSH1 0x0 DUP1 REVERT JUMPDEST POP PUSH2 0xAA PUSH2 0xE9 JUMP JUMPDEST STOP JUMPDEST CALLVALUE DUP1 ISZERO PUSH2 0xB8 JUMPI PUSH1 0x0 DUP1 REVERT JUMPDEST POP PUSH2 0xC1 PUSH2 0x20B JUMP JUMPDEST PUSH1 0x40 MLOAD DUP1 DUP3 DUP2 MSTORE PUSH1 0x20 ADD SWAP2 POP POP PUSH1 0x40 MLOAD DUP1 SWAP2 SUB SWAP1 RETURN JUMPDEST PUSH1 0x0 DUP1 SWAP1 SLOAD SWAP1 PUSH2 0x100 EXP SWAP1 DIV PUSH1 0xFF AND DUP2 JUMP JUMPDEST TIMESTAMP PUSH1 0x2 DUP2 SWAP1 SSTORE POP PUSH1 0xA PUSH1 0x1 SLOAD ADD PUSH1 0x2 SLOAD GT ISZERO PUSH2 0x208 JUMPI PUSH1 0x2 SLOAD PUSH1 0x1 DUP2 SWAP1 SSTORE POP PUSH1 0x0 PUSH1 0x3 DUP2 GT ISZERO PUSH2 0x115 JUMPI INVALID JUMPDEST PUSH1 0x0 DUP1 SWAP1 SLOAD SWAP1 PUSH2 0x100 EXP SWAP1 DIV PUSH1 0xFF AND PUSH1 0x3 DUP2 GT ISZERO PUSH2 0x12F JUMPI INVALID JUMPDEST EQ ISZERO PUSH2 0x15D JUMPI PUSH1 0x1 PUSH1 0x0 DUP1 PUSH2 0x100 EXP DUP2 SLOAD DUP2 PUSH1 0xFF MUL NOT AND SWAP1 DUP4 PUSH1 0x3 DUP2 GT ISZERO PUSH2 0x153 JUMPI INVALID JUMPDEST MUL OR SWAP1 SSTORE POP PUSH2 0x209 JUMP JUMPDEST PUSH1 0x1 PUSH1 0x3 DUP2 GT ISZERO PUSH2 0x16A JUMPI INVALID JUMPDEST PUSH1 0x0 DUP1 SWAP1 SLOAD SWAP1 PUSH2 0x100 EXP SWAP1 DIV PUSH1 0xFF AND PUSH1 0x3 DUP2 GT ISZERO PUSH2 0x184 JUMPI INVALID JUMPDEST EQ ISZERO PUSH2 0x1B2 JUMPI PUSH1 0x2 PUSH1 0x0 DUP1 PUSH2 0x100 EXP DUP2 SLOAD DUP2 PUSH1 0xFF MUL NOT AND SWAP1 DUP4 PUSH1 0x3 DUP2 GT ISZERO PUSH2 0x1A8 JUMPI INVALID JUMPDEST MUL OR SWAP1 SSTORE POP PUSH2 0x209 JUMP JUMPDEST PUSH1 0x2 PUSH1 0x3 DUP2 GT ISZERO PUSH2 0x1BF JUMPI INVALID JUMPDEST PUSH1 0x0 DUP1 SWAP1 SLOAD SWAP1 PUSH2 0x100 EXP SWAP1 DIV PUSH1 0xFF AND PUSH1 0x3 DUP2 GT ISZERO PUSH2 0x1D9 JUMPI INVALID JUMPDEST EQ ISZERO PUSH2 0x207 JUMPI PUSH1 0x3 PUSH1 0x0 DUP1 PUSH2 0x100 EXP DUP2 SLOAD DUP2 PUSH1 0xFF MUL NOT AND SWAP1 DUP4 PUSH1 0x3 DUP2 GT ISZERO PUSH2 0x1FD JUMPI INVALID JUMPDEST MUL OR SWAP1 SSTORE POP PUSH2 0x209 JUMP JUMPDEST JUMPDEST JUMPDEST JUMP JUMPDEST PUSH1 0x2 SLOAD DUP2 JUMP STOP LOG1 PUSH6 0x627A7A723058 KECCAK256 0xce 0xec DUP9 0xf5 0xe9 0x23 0xa7 LOG1 SWAP4 SLT SHL 0xc9 SWAP2 0xe5 PUSH18 0xA0394EC73B16D2763BD164F4EF1D68341F00 0x29 "
				},
				"gasEstimates": {
					"creation": {
						"codeDepositCost": "114600",
						"executionCost": "40459",
						"totalCost": "155059"
					},
					"external": {
						"advangeStage()": "62053",
						"state()": "462",
						"timeNow()": "438"
					}
				},
				"methodIdentifiers": {
					"advangeStage()": "cffb510a",
					"state()": "c19d93fb",
					"timeNow()": "d95660be"
				}
			},
			"userdoc": {
				"methods": {}
			}
		}
	}
}